{
  "contractName": "Cat",
  "abi": [
    {
      "inputs": [],
      "stateMutability": "nonpayable",
      "type": "constructor"
    },
    {
      "inputs": [],
      "name": "_initialized",
      "outputs": [
        {
          "internalType": "bool",
          "name": "",
          "type": "bool"
        }
      ],
      "stateMutability": "view",
      "type": "function",
      "constant": true
    },
    {
      "inputs": [],
      "name": "_paused",
      "outputs": [
        {
          "internalType": "bool",
          "name": "",
          "type": "bool"
        }
      ],
      "stateMutability": "view",
      "type": "function",
      "constant": true
    },
    {
      "inputs": [],
      "name": "owner",
      "outputs": [
        {
          "internalType": "address",
          "name": "",
          "type": "address"
        }
      ],
      "stateMutability": "view",
      "type": "function",
      "constant": true
    },
    {
      "inputs": [],
      "name": "getTheNumberOfCats",
      "outputs": [
        {
          "internalType": "uint256",
          "name": "",
          "type": "uint256"
        }
      ],
      "stateMutability": "view",
      "type": "function",
      "constant": true
    },
    {
      "inputs": [
        {
          "internalType": "uint256",
          "name": "toSet",
          "type": "uint256"
        }
      ],
      "name": "setTheNumberOfCats",
      "outputs": [],
      "stateMutability": "nonpayable",
      "type": "function"
    },
    {
      "inputs": [],
      "name": "pause",
      "outputs": [],
      "stateMutability": "nonpayable",
      "type": "function"
    },
    {
      "inputs": [],
      "name": "unPause",
      "outputs": [],
      "stateMutability": "nonpayable",
      "type": "function"
    }
  ],
  "bytecode": "0x608060405234801561001057600080fd5b5033600560006101000a81548173ffffffffffffffffffffffffffffffffffffffff021916908373ffffffffffffffffffffffffffffffffffffffff1602179055506105c4806100616000396000f3fe608060405234801561001057600080fd5b506004361061007d5760003560e01c80638da5cb5b1161005b5780638da5cb5b146100c8578063ae61f3a9146100e6578063b27788e914610104578063f7b188a5146101205761007d565b806316c61ccc146100825780633072cf60146100a05780638456cb59146100be575b600080fd5b61008a61012a565b6040516100979190610445565b60405180910390f35b6100a861013d565b6040516100b59190610445565b60405180910390f35b6100c6610150565b005b6100d0610217565b6040516100dd919061042a565b60405180910390f35b6100ee61023d565b6040516100fb9190610480565b60405180910390f35b61011e60048036038101906101199190610379565b610260565b005b61012861029e565b005b600560159054906101000a900460ff1681565b600560149054906101000a900460ff1681565b600560009054906101000a900473ffffffffffffffffffffffffffffffffffffffff1673ffffffffffffffffffffffffffffffffffffffff163373ffffffffffffffffffffffffffffffffffffffff16146101e0576040517f08c379a00000000000000000000000000000000000000000000000000000000081526004016101d790610460565b60405180910390fd5b600560159054906101000a900460ff16156101fa57600080fd5b6001600560156101000a81548160ff021916908315150217905550565b600560009054906101000a900473ffffffffffffffffffffffffffffffffffffffff1681565b60008060405161024c90610415565b908152602001604051809103902054905090565b600560159054906101000a900460ff161561027a57600080fd5b80600060405161028990610415565b90815260200160405180910390208190555050565b600560009054906101000a900473ffffffffffffffffffffffffffffffffffffffff1673ffffffffffffffffffffffffffffffffffffffff163373ffffffffffffffffffffffffffffffffffffffff161461032e576040517f08c379a000000000000000000000000000000000000000000000000000000000815260040161032590610460565b60405180910390fd5b600560159054906101000a900460ff1661034757600080fd5b6000600560156101000a81548160ff021916908315150217905550565b60008135905061037381610577565b92915050565b60006020828403121561038b57600080fd5b600061039984828501610364565b91505092915050565b6103ab816104b7565b82525050565b6103ba816104c9565b82525050565b60006103cd60328361049b565b91506103d8826104ff565b604082019050919050565b60006103f06004836104ac565b91506103fb8261054e565b600482019050919050565b61040f816104f5565b82525050565b6000610420826103e3565b9150819050919050565b600060208201905061043f60008301846103a2565b92915050565b600060208201905061045a60008301846103b1565b92915050565b60006020820190508181036000830152610479816103c0565b9050919050565b60006020820190506104956000830184610406565b92915050565b600082825260208201905092915050565b600081905092915050565b60006104c2826104d5565b9050919050565b60008115159050919050565b600073ffffffffffffffffffffffffffffffffffffffff82169050919050565b6000819050919050565b7f4f6e6c7920636f6e7472616374206f776e65722063616e2063616c6c2074686960008201527f732066756e6374696f6e20676f20617761790000000000000000000000000000602082015250565b7f4361747300000000000000000000000000000000000000000000000000000000600082015250565b610580816104f5565b811461058b57600080fd5b5056fea2646970667358221220a9e602b2e09355c9cd3d7e1262a5686a6f98bce94f543486f4d7983f6a7e089764736f6c63430008040033",
  "immutableReferences": {},
  "source": "pragma solidity 0.8.4;\r\n\r\n//Gives Data structure\r\nimport \"./Storage.sol\";\r\n\r\n//set our inheritance from storage\r\ncontract Cat is Storage {\r\n\r\n    modifier onlyOwner{\r\n        require(msg.sender == owner, \"Only contract owner can call this function go away\");\r\n        _;\r\n    }\r\n\r\n    //allow functions to continue when under normal operation (not paused)\r\n    modifier whenNotPaused(){\r\n       require(!_paused); \r\n       _;\r\n    }\r\n\r\n     //allow no critical functions to continue when under emergency operation (paused)\r\n     modifier whenPaused(){\r\n       require(_paused); \r\n       _;\r\n    }\r\n\r\n    constructor() public {\r\n        \r\n        owner = msg.sender;\r\n    \r\n    }\r\n   \r\n    //return our mappings\r\n    function getTheNumberOfCats() public view returns(uint256){\r\n        \r\n        return _uintStorage[\"Cats\"];\r\n    } \r\n    \r\n    function setTheNumberOfCats(uint256 toSet) public whenNotPaused {\r\n        \r\n         _uintStorage[\"Cats\"] = toSet;\r\n    }\r\n\r\n       function pause() public onlyOwner whenNotPaused {\r\n        _paused = true;\r\n    }\r\n\r\n       function unPause() public onlyOwner whenPaused {\r\n        _paused= false;\r\n    }\r\n   \r\n}\r\n",
  "sourcePath": "C:/Users/mikal/Msimbo/proxyContract/contracts/Cats.sol",
  "compiler": {
    "name": "solc",
    "version": "0.8.4+commit.c7e474f2.Emscripten.clang"
  },
  "schemaVersion": "3.3.4",
  "updatedAt": "2021-07-31T00:01:23.682Z",
  "networkType": "ethereum",
  "devdoc": {
    "kind": "dev",
    "methods": {},
    "version": 1
  },
  "userdoc": {
    "kind": "user",
    "methods": {},
    "version": 1
  }
}