{
  "contractName": "Cat",
  "abi": [
    {
      "inputs": [],
      "stateMutability": "nonpayable",
      "type": "constructor"
    },
    {
      "inputs": [],
      "name": "_initialized",
      "outputs": [
        {
          "internalType": "bool",
          "name": "",
          "type": "bool"
        }
      ],
      "stateMutability": "view",
      "type": "function",
      "constant": true
    },
    {
      "inputs": [],
      "name": "owner",
      "outputs": [
        {
          "internalType": "address",
          "name": "",
          "type": "address"
        }
      ],
      "stateMutability": "view",
      "type": "function",
      "constant": true
    },
    {
      "inputs": [],
      "name": "getTheNumberOfCats",
      "outputs": [
        {
          "internalType": "uint256",
          "name": "",
          "type": "uint256"
        }
      ],
      "stateMutability": "view",
      "type": "function",
      "constant": true
    },
    {
      "inputs": [
        {
          "internalType": "uint256",
          "name": "toSet",
          "type": "uint256"
        }
      ],
      "name": "setTheNumberOfCats",
      "outputs": [],
      "stateMutability": "nonpayable",
      "type": "function"
    }
  ],
  "bytecode": "0x608060405234801561001057600080fd5b5033600560006101000a81548173ffffffffffffffffffffffffffffffffffffffff021916908373ffffffffffffffffffffffffffffffffffffffff160217905550610304806100616000396000f3fe608060405234801561001057600080fd5b506004361061004c5760003560e01c80633072cf60146100515780638da5cb5b1461006f578063ae61f3a91461008d578063b27788e9146100ab575b600080fd5b6100596100c7565b6040516100669190610205565b60405180910390f35b6100776100da565b60405161008491906101ea565b60405180910390f35b610095610100565b6040516100a29190610220565b60405180910390f35b6100c560048036038101906100c0919061015c565b610123565b005b600560149054906101000a900460ff1681565b600560009054906101000a900473ffffffffffffffffffffffffffffffffffffffff1681565b60008060405161010f906101d5565b908152602001604051809103902054905090565b806000604051610132906101d5565b90815260200160405180910390208190555050565b600081359050610156816102b7565b92915050565b60006020828403121561016e57600080fd5b600061017c84828501610147565b91505092915050565b61018e81610246565b82525050565b61019d81610258565b82525050565b60006101b060048361023b565b91506101bb8261028e565b600482019050919050565b6101cf81610284565b82525050565b60006101e0826101a3565b9150819050919050565b60006020820190506101ff6000830184610185565b92915050565b600060208201905061021a6000830184610194565b92915050565b600060208201905061023560008301846101c6565b92915050565b600081905092915050565b600061025182610264565b9050919050565b60008115159050919050565b600073ffffffffffffffffffffffffffffffffffffffff82169050919050565b6000819050919050565b7f4361747300000000000000000000000000000000000000000000000000000000600082015250565b6102c081610284565b81146102cb57600080fd5b5056fea2646970667358221220a753f538c3e67e16a7a50a32743820d08a25268141c94ad87948183c62009e4464736f6c63430008040033",
  "immutableReferences": {},
  "source": "pragma solidity 0.8.4;\r\n\r\n//Gives Data structure\r\nimport \"./Storage.sol\";\r\n\r\n//set our inheritance from storage\r\ncontract Cat is Storage {\r\n\r\n    modifier onlyOwner{\r\n        require(msg.sender == owner, \"Only contract owner can call this function go away\");\r\n        _;\r\n    }\r\n\r\n    constructor() public {\r\n        \r\n        owner = msg.sender;\r\n    \r\n    }\r\n   \r\n    //return our mappings\r\n    function getTheNumberOfCats() public view returns(uint256){\r\n        \r\n        return _uintStorage[\"Cats\"];\r\n    } \r\n    \r\n    function setTheNumberOfCats(uint256 toSet) public {\r\n        \r\n         _uintStorage[\"Cats\"] = toSet;\r\n    }\r\n}\r\n",
  "sourcePath": "C:/Users/mikal/Msimbo/proxyContract/contracts/Cats.sol",
  "compiler": {
    "name": "solc",
    "version": "0.8.4+commit.c7e474f2.Emscripten.clang"
  },
  "schemaVersion": "3.3.4",
  "updatedAt": "2021-07-30T16:32:08.789Z",
  "networkType": "ethereum",
  "devdoc": {
    "kind": "dev",
    "methods": {},
    "version": 1
  },
  "userdoc": {
    "kind": "user",
    "methods": {},
    "version": 1
  }
}