{
  "contractName": "CatUpgrade",
  "abi": [
    {
      "inputs": [],
      "stateMutability": "nonpayable",
      "type": "constructor"
    },
    {
      "inputs": [],
      "name": "_initialized",
      "outputs": [
        {
          "internalType": "bool",
          "name": "",
          "type": "bool"
        }
      ],
      "stateMutability": "view",
      "type": "function",
      "constant": true
    },
    {
      "inputs": [],
      "name": "owner",
      "outputs": [
        {
          "internalType": "address",
          "name": "",
          "type": "address"
        }
      ],
      "stateMutability": "view",
      "type": "function",
      "constant": true
    },
    {
      "inputs": [],
      "name": "getTheNumberOfCats",
      "outputs": [
        {
          "internalType": "uint256",
          "name": "",
          "type": "uint256"
        }
      ],
      "stateMutability": "view",
      "type": "function",
      "constant": true
    },
    {
      "inputs": [
        {
          "internalType": "uint256",
          "name": "toSet",
          "type": "uint256"
        }
      ],
      "name": "setTheNumberOfCats",
      "outputs": [],
      "stateMutability": "nonpayable",
      "type": "function"
    }
  ],
  "bytecode": "0x608060405234801561001057600080fd5b5033600560006101000a81548173ffffffffffffffffffffffffffffffffffffffff021916908373ffffffffffffffffffffffffffffffffffffffff160217905550610437806100616000396000f3fe608060405234801561001057600080fd5b506004361061004c5760003560e01c80633072cf60146100515780638da5cb5b1461006f578063ae61f3a91461008d578063b27788e9146100ab575b600080fd5b6100596100c7565b60405161006691906102b8565b60405180910390f35b6100776100da565b604051610084919061029d565b60405180910390f35b610095610100565b6040516100a291906102f3565b60405180910390f35b6100c560048036038101906100c091906101ec565b610123565b005b600560149054906101000a900460ff1681565b600560009054906101000a900473ffffffffffffffffffffffffffffffffffffffff1681565b60008060405161010f90610288565b908152602001604051809103902054905090565b600560009054906101000a900473ffffffffffffffffffffffffffffffffffffffff1673ffffffffffffffffffffffffffffffffffffffff163373ffffffffffffffffffffffffffffffffffffffff16146101b3576040517f08c379a00000000000000000000000000000000000000000000000000000000081526004016101aa906102d3565b60405180910390fd5b8060006040516101c290610288565b90815260200160405180910390208190555050565b6000813590506101e6816103ea565b92915050565b6000602082840312156101fe57600080fd5b600061020c848285016101d7565b91505092915050565b61021e8161032a565b82525050565b61022d8161033c565b82525050565b600061024060328361030e565b915061024b82610372565b604082019050919050565b600061026360048361031f565b915061026e826103c1565b600482019050919050565b61028281610368565b82525050565b600061029382610256565b9150819050919050565b60006020820190506102b26000830184610215565b92915050565b60006020820190506102cd6000830184610224565b92915050565b600060208201905081810360008301526102ec81610233565b9050919050565b60006020820190506103086000830184610279565b92915050565b600082825260208201905092915050565b600081905092915050565b600061033582610348565b9050919050565b60008115159050919050565b600073ffffffffffffffffffffffffffffffffffffffff82169050919050565b6000819050919050565b7f4f6e6c7920636f6e7472616374206f776e65722063616e2063616c6c2074686960008201527f732066756e6374696f6e20676f20617761790000000000000000000000000000602082015250565b7f4361747300000000000000000000000000000000000000000000000000000000600082015250565b6103f381610368565b81146103fe57600080fd5b5056fea26469706673582212202d13beef4eb9a8979bc6972c068a1bdf482645c8cfb3a74b84548cb5d1f6bd0764736f6c63430008040033",
  "immutableReferences": {},
  "source": "pragma solidity 0.8.4;\r\n\r\n\r\nimport \"./Storage.sol\";\r\n\r\n\r\ncontract CatUpgrade is Storage {\r\n\r\n    modifier onlyOwner{\r\n        require(msg.sender == owner, \"Only contract owner can call this function go away\");\r\n        _;\r\n    }\r\n\r\n    constructor() public {\r\n        \r\n        owner = msg.sender;\r\n    \r\n    }\r\n   \r\n   \r\n    function getTheNumberOfCats() public view returns(uint256){ \r\n        return _uintStorage[\"Cats\"];\r\n    } \r\n    \r\n    function setTheNumberOfCats(uint256 toSet) public onlyOwner { \r\n         _uintStorage[\"Cats\"] = toSet;\r\n    }\r\n}\r\n",
  "sourcePath": "C:/Users/mikal/Msimbo/proxyContract/contracts/CatsUpgrade.sol",
  "compiler": {
    "name": "solc",
    "version": "0.8.4+commit.c7e474f2.Emscripten.clang"
  },
  "schemaVersion": "3.3.4",
  "updatedAt": "2021-07-30T15:11:42.902Z",
  "networkType": "ethereum",
  "devdoc": {
    "kind": "dev",
    "methods": {},
    "version": 1
  },
  "userdoc": {
    "kind": "user",
    "methods": {},
    "version": 1
  }
}