{
  "contractName": "CatUpgrade",
  "abi": [
    {
      "inputs": [],
      "stateMutability": "nonpayable",
      "type": "constructor"
    },
    {
      "inputs": [],
      "name": "_initialized",
      "outputs": [
        {
          "internalType": "bool",
          "name": "",
          "type": "bool"
        }
      ],
      "stateMutability": "view",
      "type": "function",
      "constant": true
    },
    {
      "inputs": [],
      "name": "owner",
      "outputs": [
        {
          "internalType": "address",
          "name": "",
          "type": "address"
        }
      ],
      "stateMutability": "view",
      "type": "function",
      "constant": true
    },
    {
      "inputs": [
        {
          "internalType": "address",
          "name": "_owner",
          "type": "address"
        }
      ],
      "name": "initialize",
      "outputs": [],
      "stateMutability": "nonpayable",
      "type": "function"
    },
    {
      "inputs": [],
      "name": "getTheNumberOfCats",
      "outputs": [
        {
          "internalType": "uint256",
          "name": "",
          "type": "uint256"
        }
      ],
      "stateMutability": "view",
      "type": "function",
      "constant": true
    },
    {
      "inputs": [
        {
          "internalType": "uint256",
          "name": "toSet",
          "type": "uint256"
        }
      ],
      "name": "setTheNumberOfCats",
      "outputs": [],
      "stateMutability": "nonpayable",
      "type": "function"
    }
  ],
  "bytecode": "0x608060405234801561001057600080fd5b506100203361002560201b60201c565b61009e565b600560149054906101000a900460ff161561003f57600080fd5b80600560006101000a81548173ffffffffffffffffffffffffffffffffffffffff021916908373ffffffffffffffffffffffffffffffffffffffff1602179055506001600560146101000a81548160ff02191690831515021790555050565b61052c806100ad6000396000f3fe608060405234801561001057600080fd5b50600436106100575760003560e01c80633072cf601461005c5780638da5cb5b1461007a578063ae61f3a914610098578063b27788e9146100b6578063c4d66de8146100d2575b600080fd5b6100646100ee565b6040516100719190610396565b60405180910390f35b610082610101565b60405161008f919061037b565b60405180910390f35b6100a0610127565b6040516100ad91906103d1565b60405180910390f35b6100d060048036038101906100cb91906102ca565b61014a565b005b6100ec60048036038101906100e791906102a1565b6101fe565b005b600560149054906101000a900460ff1681565b600560009054906101000a900473ffffffffffffffffffffffffffffffffffffffff1681565b60008060405161013690610366565b908152602001604051809103902054905090565b600560009054906101000a900473ffffffffffffffffffffffffffffffffffffffff1673ffffffffffffffffffffffffffffffffffffffff163373ffffffffffffffffffffffffffffffffffffffff16146101da576040517f08c379a00000000000000000000000000000000000000000000000000000000081526004016101d1906103b1565b60405180910390fd5b8060006040516101e990610366565b90815260200160405180910390208190555050565b600560149054906101000a900460ff161561021857600080fd5b80600560006101000a81548173ffffffffffffffffffffffffffffffffffffffff021916908373ffffffffffffffffffffffffffffffffffffffff1602179055506001600560146101000a81548160ff02191690831515021790555050565b600081359050610286816104c8565b92915050565b60008135905061029b816104df565b92915050565b6000602082840312156102b357600080fd5b60006102c184828501610277565b91505092915050565b6000602082840312156102dc57600080fd5b60006102ea8482850161028c565b91505092915050565b6102fc81610408565b82525050565b61030b8161041a565b82525050565b600061031e6032836103ec565b915061032982610450565b604082019050919050565b60006103416004836103fd565b915061034c8261049f565b600482019050919050565b61036081610446565b82525050565b600061037182610334565b9150819050919050565b600060208201905061039060008301846102f3565b92915050565b60006020820190506103ab6000830184610302565b92915050565b600060208201905081810360008301526103ca81610311565b9050919050565b60006020820190506103e66000830184610357565b92915050565b600082825260208201905092915050565b600081905092915050565b600061041382610426565b9050919050565b60008115159050919050565b600073ffffffffffffffffffffffffffffffffffffffff82169050919050565b6000819050919050565b7f4f6e6c7920636f6e7472616374206f776e65722063616e2063616c6c2074686960008201527f732066756e6374696f6e20676f20617761790000000000000000000000000000602082015250565b7f4361747300000000000000000000000000000000000000000000000000000000600082015250565b6104d181610408565b81146104dc57600080fd5b50565b6104e881610446565b81146104f357600080fd5b5056fea26469706673582212203f477e2b3799030f9ef172b77e11ece4cdf91d340ae89888235677c700de7b4764736f6c63430008040033",
  "immutableReferences": {},
  "source": "pragma solidity 0.8.4;\r\n\r\n\r\nimport \"./Storage.sol\";\r\n\r\n\r\ncontract CatUpgrade is Storage {\r\n\r\n    modifier onlyOwner{\r\n        require(msg.sender == owner, \"Only contract owner can call this function go away\");\r\n        _;\r\n    }\r\n    \r\n    \r\n\r\n    constructor() public {\r\n        /*\r\n         call initialize  function, passing contract owner as argument.\r\n\r\n         From perspective of functional contract upgrade itself, \r\n         (CatUpgrade) not the view of the proxy...\r\n\r\n         \r\n        \r\n        */\r\n        initialize(msg.sender);\r\n    \r\n    }\r\n\r\n    /*\r\n        We are initializing the proxy so it has the information needed for constructor...\r\n        Our functional contract has a constructor that requires some variable(s) [owner] for its initial state...\r\n        The proxy contract will not know that, so we must create it via our initialize function...\r\n        its arguements are the variables needed for constructor inital state.\r\n        This also gives us more flexibility.\r\n\r\n        the initialize should ONLY BE ABLE TO RUN ONCE\r\n        or anyone can call it, and exploit contract.\r\n\r\n        We can use our  \"_initialize\" variable we left in our storage contract\r\n        to check against with a negate function requiring that the _initialized boolean\r\n        is true, ensuring our initialize function is only run once for security.\r\n    */\r\n    function initialize(address _owner) public {\r\n       require(!_initialized); //CHECK: initialized is false\r\n       owner = _owner; //EFFECT: set the owner\r\n       _initialized = true; //INTERACTION: set the variable to true, so it cant be run twice  \r\n    }\r\n   \r\n   \r\n    function getTheNumberOfCats() public view returns(uint256){ \r\n        return _uintStorage[\"Cats\"];\r\n    } \r\n    \r\n    function setTheNumberOfCats(uint256 toSet) public onlyOwner { \r\n         _uintStorage[\"Cats\"] = toSet;\r\n    }\r\n}\r\n",
  "sourcePath": "C:/Users/mikal/Msimbo/proxyContract/contracts/CatsUpgrade.sol",
  "compiler": {
    "name": "solc",
    "version": "0.8.4+commit.c7e474f2.Emscripten.clang"
  },
  "schemaVersion": "3.3.4",
  "updatedAt": "2021-07-30T16:32:08.791Z",
  "networkType": "ethereum",
  "devdoc": {
    "kind": "dev",
    "methods": {},
    "version": 1
  },
  "userdoc": {
    "kind": "user",
    "methods": {},
    "version": 1
  }
}