{
  "contractName": "Storage",
  "abi": [
    {
      "inputs": [],
      "name": "_initialized",
      "outputs": [
        {
          "internalType": "bool",
          "name": "",
          "type": "bool"
        }
      ],
      "stateMutability": "view",
      "type": "function"
    },
    {
      "inputs": [],
      "name": "_paused",
      "outputs": [
        {
          "internalType": "bool",
          "name": "",
          "type": "bool"
        }
      ],
      "stateMutability": "view",
      "type": "function"
    },
    {
      "inputs": [],
      "name": "owner",
      "outputs": [
        {
          "internalType": "address",
          "name": "",
          "type": "address"
        }
      ],
      "stateMutability": "view",
      "type": "function"
    }
  ],
  "bytecode": "0x608060405234801561001057600080fd5b506101b4806100206000396000f3fe608060405234801561001057600080fd5b50600436106100415760003560e01c806316c61ccc146100465780633072cf60146100645780638da5cb5b14610082575b600080fd5b61004e6100a0565b60405161005b9190610125565b60405180910390f35b61006c6100b3565b6040516100799190610125565b60405180910390f35b61008a6100c6565b604051610097919061010a565b60405180910390f35b600560159054906101000a900460ff1681565b600560149054906101000a900460ff1681565b600560009054906101000a900473ffffffffffffffffffffffffffffffffffffffff1681565b6100f581610140565b82525050565b61010481610152565b82525050565b600060208201905061011f60008301846100ec565b92915050565b600060208201905061013a60008301846100fb565b92915050565b600061014b8261015e565b9050919050565b60008115159050919050565b600073ffffffffffffffffffffffffffffffffffffffff8216905091905056fea2646970667358221220444d09d12526097d4bed3009262aaa5922e2aae063cd40749c734b026d15f52964736f6c63430008040033",
  "immutableReferences": {},
  "source": "pragma solidity 0.8.4;\r\n\r\n//storage is immutable, changing storage risk corrupting proxy,\r\n//Therefore think it through! What type of storage will we need?\r\ncontract Storage {\r\n    //create a mappping for every data type we may need\r\n    mapping (string => uint256) _uintStorage;\r\n    mapping (string => address) _addressStorage;\r\n    mapping (string => bool) _boolStorage;\r\n    mapping (string => string) _stringStorage;\r\n    mapping (string => bytes4) _bytesStorage;\r\n   \r\n    \r\n    address public owner;\r\n    \r\n    bool public _initialized;\r\n\r\n    //implenting pause functionality\r\n    bool public _paused;\r\n}",
  "sourcePath": "C:\\Users\\mikal\\Msimbo\\proxyContract\\contracts\\Storage.sol",
  "compiler": {
    "name": "solc",
    "version": "0.8.4+commit.c7e474f2.Emscripten.clang"
  },
  "schemaVersion": "3.3.4",
  "updatedAt": "2021-07-31T00:01:22.043Z",
  "devdoc": {
    "kind": "dev",
    "methods": {},
    "version": 1
  },
  "userdoc": {
    "kind": "user",
    "methods": {},
    "version": 1
  }
}