{
  "contractName": "Storage",
  "abi": [
    {
      "inputs": [],
      "name": "_initialized",
      "outputs": [
        {
          "internalType": "bool",
          "name": "",
          "type": "bool"
        }
      ],
      "stateMutability": "view",
      "type": "function"
    },
    {
      "inputs": [],
      "name": "owner",
      "outputs": [
        {
          "internalType": "address",
          "name": "",
          "type": "address"
        }
      ],
      "stateMutability": "view",
      "type": "function"
    }
  ],
  "bytecode": "0x608060405234801561001057600080fd5b50610178806100206000396000f3fe608060405234801561001057600080fd5b50600436106100365760003560e01c80633072cf601461003b5780638da5cb5b14610059575b600080fd5b610043610077565b60405161005091906100e9565b60405180910390f35b61006161008a565b60405161006e91906100ce565b60405180910390f35b600560149054906101000a900460ff1681565b600560009054906101000a900473ffffffffffffffffffffffffffffffffffffffff1681565b6100b981610104565b82525050565b6100c881610116565b82525050565b60006020820190506100e360008301846100b0565b92915050565b60006020820190506100fe60008301846100bf565b92915050565b600061010f82610122565b9050919050565b60008115159050919050565b600073ffffffffffffffffffffffffffffffffffffffff8216905091905056fea264697066735822122034a3f2fa31c7f5f212516723a5fdce8cb870131432a3bdc9888ac7abe243dbad64736f6c63430008040033",
  "immutableReferences": {},
  "source": "pragma solidity 0.8.4;\r\n\r\n//storage is immutable, changing storage risk corrupting proxy,\r\n//Therefore think it through! What type of storage will we need?\r\ncontract Storage {\r\n    //create a mappping for every data type we may need\r\n    mapping (string => uint256) _uintStorage;\r\n    mapping (string => address) _addressStorage;\r\n    mapping (string => bool) _boolStorage;\r\n    mapping (string => string) _stringStorage;\r\n    mapping (string => bytes4) _bytesStorage;\r\n   \r\n    \r\n    address public owner;\r\n    \r\n    bool public _initialized;\r\n}",
  "sourcePath": "C:\\Users\\mikal\\Msimbo\\proxyContract\\contracts\\Storage.sol",
  "compiler": {
    "name": "solc",
    "version": "0.8.4+commit.c7e474f2.Emscripten.clang"
  },
  "schemaVersion": "3.3.4",
  "updatedAt": "2021-07-30T13:27:13.480Z",
  "devdoc": {
    "kind": "dev",
    "methods": {},
    "version": 1
  },
  "userdoc": {
    "kind": "user",
    "methods": {},
    "version": 1
  }
}